:020000040800F2
:10000000B008002015030008A1050008A30500089A
:10001000A7050008AB050008AF05000800000000B8
:10002000000000000000000000000000B305000810
:10003000B505000800000000B7050008B905000874
:100040002F0300082F0300082F03000805060008EF
:100050002F0300082F030008BB0500082F0300082A
:100060002F0300082F0300082F0300082F030008A8
:100070002F0300082F0300082F0300082F03000898
:100080002F0300082F0300082F0300082F03000888
:100090002F0300082F0300082F0300082F03000878
:1000A0002F0300082F0300082F0300082F03000868
:1000B0002F0300082F0300082F0300082F03000858
:1000C0002F0300082F0300082F0300082F03000848
:1000D0002F030008BD050008BF0500082F03000816
:1000E0002F0300082F0300082F0300082F03000828
:1000F0002F0300082F0300082F0300082F03000818
:100100002F0300082F0300082F0300082F03000807
:100110002F0300082F0300082F0300082F030008F7
:100120002F0300082F0300082F0300082F030008E7
:10013000DFF80CD002F074FF0048004739030008D4
:10014000B008002000210020674A126842F4803283
:10015000654B1A6000BF644A126802F40030491C03
:1001600010B9B1F5A06FF6D15F4A126812F4003FE2
:1001700001D0012000E00020012842D15B4A126832
:1001800042F01002594B1A601A46126822F003021C
:100190001A601A46126842F002021A60524A526805
:1001A000514B5A601A4652685A601A46526842F4D5
:1001B00080625A601A46526822F47C125A601A46CB
:1001C000526842F450225A601A46126842F0807215
:1001D0001A6000BF444A126812F0007FFAD0424A07
:1001E000526822F00302404B5A601A46526842F0AD
:1001F00002025A6000BF3C4A526802F00C02082A10
:10020000F9D1704710B5FFF79DFF10BD10B5364806
:10021000006840F0010034490860084640683449ED
:1002200008403149486008460068324908402E4974
:1002300008600846006820F480200860084640688E
:1002400020F4FE0048604FF41F008860FFF7DAFFDB
:100250004FF000602849086010BD10B50021002053
:100260000022214B5B6803F00C0121B1042906D068
:10027000082928D107E0214B214C236027E0214B9E
:100280001F4C236023E0184B5B6803F47010164B7F
:100290005B6803F48032022303EB904022B91A4BCF
:1002A0004343174C23600DE00F4B5B6813F4003F92
:1002B00004D0164B4343124C236003E0114B4343DD
:1002C0000F4C236003E00D4B0D4C236000BF00BFBB
:1002D000054B5B68C3F303130D4CE15C084B1B68D3
:1002E000CB40074C236010BD0010024000200240AC
:1002F0000000FFF8FFFFF6FE08ED00E000127A00B4
:1003000000000020001BB70000093D00808D5B004D
:10031000040000200648804706480047FEE7FEE745
:10032000FEE7FEE7FEE7FEE7FEE7FEE7FEE7FEE7A5
:100330000D02000831010008ADF5487D4FF4FA7157
:1003400032A802F01FFEC821684602F01BFE0025FD
:100350000026AB4602F0EEFC02F0DAFC02F012FBE3
:1003600002F08AFB02F0D5FD02F05AFD02F080FA9D
:100370006FA002F067FEDAE002F06FFD1FFA80FA6C
:1003800041F2883002F029FD51466EA002F05AFE7B
:10039000BAF1140FEFDA00260025AB46C8216846F3
:1003A00002F0F0FD00208DF8C800012430E068481C
:1003B000006885B20A2095FBF0F05E3803D5002076
:1003C00032A9085505E00A2095FBF0F05E3832A905
:1003D000085532A8015D601E32AA105C081A0A286E
:1003E0000ADA601E32A9085C095D401A0A2803DA9D
:1003F000601E32A9085C085532A8005D0A2802DA9E
:10040000002032A90855642002F0E7FC601C84B289
:10041000B4F5FA7FCBDB4FF0000867E00025A94672
:10042000642108FB01F0401C84B21CE032A8015D8D
:10043000A4F1010032AA105C081A0BD432A8005DA6
:10044000002807DD32A8005D4119601E105C081A03
:1004500085B206E04846411C1FFA81F92DF810507C
:100460000025601C84B208F1010064214843A042C9
:10047000DCDC01242BE0601E3DF810003DF8141078
:10048000884222DA601C3DF810003DF814108842C2
:100490001BDA3DF81400282806DD3DF814005A2820
:1004A00002DC701CC6B210E03DF814005A2806DDCC
:1004B0003DF81400872802DCB01CC6B205E03DF808
:1004C0001400872801DDF01CC6B2601C84B24C45C4
:1004D00004DA3DF81400B0F5967FCCDB31461DA060
:1004E00002F0B0FD08F101001FFA80F8B8F1050F25
:1004F00094DBB34602F00FFB5A461AA1AFA802F0F4
:10050000CDF80746FAB2AFA9184802F00EFBAFA922
:1005100017A002F097FD4FF47A7002F05EFC1A49C2
:100520001AA002F08FFD4FF47A7002F056FC23E718
:100530004553503832363620696E6974206F7665BF
:10054000720D0A00535246203A0D0A25640D0A0026
:1005500030000020706572736F6E5F6E756D3A25A6
:10056000640D0A0063643031303100000044004003
:1005700073656E642048545450206D73673A0D0AB9
:1005800025730D0A00000000AA0000207263762087
:10059000726573706F6E73653A0D0A25730D0A00EC
:1005A000704700BFFEE700BFFEE700BFFEE700BFE9
:1005B000FEE770477047704770477047704710B547
:1005C0001149098811F00F0F03D00F49091D088840
:1005D00017E00D49098811F0200F12D00A49091DB2
:1005E00008880A4A11684A1C084C2260084A50547C
:1005F0002146096840F2FF32914202D3002122468F
:10060000116010BD70470000004400402C00002025
:10061000AA00002031490143314A1160704770B58A
:10062000002100230F22C4780CB32D4C246804F45D
:10063000E064C4F5E064210AC1F10403CA404478CF
:1006400004FA03F18478144021430901254C06780B
:10065000A155047804F01F050124AC4005786D1104
:100660004FF0E02606EB8505C5F8004109E0047867
:1006700004F01F050124AC401B4D0678761145F8A7
:10068000264070BD194A0A400243154B1B1F1A60D1
:10069000704739B1124A121D12680243104B1B1DDC
:1006A0001A6006E00E4A121D126882430C4B1B1D95
:1006B0001A607047042808D14FF0E021096941F021
:1006C00004014FF0E022116107E04FF0E0210969D9
:1006D00021F004014FF0E022116170470000FA059B
:1006E0000CED00E000E400E080E100E080FFFF1F8F
:1006F00010B50446CA48844208D10121042000F004
:1007000023FB0021042000F01FFB46E0C548844283
:1007100008D10121082000F017FB0021082000F07B
:1007200013FB3AE0C048844208D10121102000F0B8
:100730000BFB0021102000F007FB2EE0BB48844299
:1007400008D10121202000F0FFFA0021202000F034
:10075000FBFA22E0B648844208D10121402000F093
:10076000F3FA0021402000F0EFFA16E0B14884428D
:1007700008D10121802000F0E7FA0021802000F05C
:10078000E3FA0AE0AC48844207D10121801500F069
:10079000DBFA0021A01500F0D7FA10BD10B5012139
:1007A000084600F0D1FA0021012000F0CDFA10BD7A
:1007B0002DE9F041024600250026002000230024F8
:1007C000002791F803C00CF00F0591F803C01CF04E
:1007D000100F03D091F802C04CEA050591F800C053
:1007E000BCF1000F31D0146800202BE04FF0010C59
:1007F0000CFA00F3B1F800C00CEA03069E4220D1C7
:1008000083004FF00F0C0CFA03F7BC4305FA03FC0E
:100810004CEA040491F803C0BCF1280F06D14FF054
:10082000010C0CFA00FCC2F814C00AE091F803C0F5
:10083000BCF1480F05D14FF0010C0CFA00FCC2F8D6
:1008400010C0401C0828D1D31460B1F800C0BCF11E
:10085000FF0F34DD546800202EE000F1080C4FF04B
:10086000010808FA0CF3B1F800C00CEA03069E4236
:1008700021D183004FF00F0C0CFA03F7BC4305FAAB
:1008800003FC4CEA040491F803C0BCF1280F05D125
:1008900000F1080C08FA0CF8C2F8148091F803C0B3
:1008A000BCF1480F07D100F1080C4FF0010808FA1D
:1008B0000CF8C2F81080401C0828CED35460BDE864
:1008C000F0814FF6FF710180022181700421C17017
:1008D00070470246002093680B4201D0012000E0DF
:1008E000002070470146886880B2704702460020A9
:1008F000D3680B4201D0012000E000207047014680
:10090000C86880B2704701617047416170470AB1A1
:10091000016100E041617047C16070474FF480326F
:100920000A438261816182618269826970470246FD
:100930000020424B18684FF68073184040EA0210BE
:1009400008433E4B186070473D49C8617047F0B599
:100950000A46002300240021002500F00046B6F1DD
:10096000004F02D1354EF16901E0344E7168C0F399
:10097000034583B200F44016B6F5401F08D121F0BC
:1009800070612E4E766826F070662C4F7E6012E005
:1009900000F48016B6F5801F06D1032606FA05F48A
:1009A000A14341F0706106E0460D360103FA06F6F8
:1009B000B14341F0706122B1460D360103FA06F6EB
:1009C000314300F00046B6F1004F02D11B4EF161F9
:1009D00001E01A4E7160F0BD30B500228B071C0F8C
:1009E0000F2303FA04F2154B08338C1053F824300C
:1009F0009343124C08348D1044F8253023468C1054
:100A000053F824308C07240F00FA04F423430B4CD2
:100A100008348D1044F8253030BD0A49086070470D
:100A200000080140000C014000100140001401408A
:100A300000180140001C014000200140000001405E
:100A400000002042DC002042DB48006840F001004A
:100A5000D949086008464068D8490840D6494860E6
:100A600008460068D6490840D3490860084600682F
:100A700020F4802008600846406820F4FE004860AA
:100A80004FF41F0088607047CB49096821F480311A
:100A9000C94A11601146096821F480211160B0F53E
:100AA000803F03D0B0F5802F0ED106E0C24909681F
:100AB00041F48031C04A116007E0BF49096841F440
:100AC000A021BD4A116000E000BF00BF704710B513
:100AD00001460022002300204A11012A02D1B64C0F
:100AE000236806E0022A02D1B34C236A01E0B24C2B
:100AF000636A01F01F02012494401C4201D00120CE
:100B000000E0002010BD70B500240025002600BFC5
:100B10003120FFF7DCFF0646641CB4F5A06F01D05E
:100B2000002EF5D03120FFF7D2FF08B1012500E0FB
:100B30000025284670BD014600209F4A106820F01D
:100B4000F80040EAC100106070479E490860704795
:100B500002460020984B586820F47C1042EA0103BA
:100B60001843954B58607047964908667047014690
:100B70000020914A506820F00300084350607047FD
:100B80008D48406800F00C007047014600208A4AFA
:100B9000506820F0F0000843506070470146002084
:100BA000854A506820F4E060084350607047014671
:100BB0000020814A506820F4605040EAC100506033
:100BC000704729B17C4A527A02437B4B5A7204E047
:100BD000794A527A8243784B5A7270477A49086050
:100BE000704701460020744A506820F44040084392
:100BF000506070470021754A11706F4A82F82010CA
:100C0000012802D0042808D103E001216F4A1170A5
:100C100004E005216D4A117000E000BF00BF70477D
:100C20006B49086070476449096A0143624A11626E
:100C30007047674944390860704730B50021002289
:100C4000002400235C4D6D6805F00C0121B10429DE
:100C500005D0082923D105E05E4D056022E05E4DF8
:100C600005601FE0544D6D6805F47012524D6D68BB
:100C700005F48034022505EB92421CB9574D5543CB
:100C800005600BE04C4D6D6815F4003F03D0544DEA
:100C90005543056002E0504D5543056002E04D4D5F
:100CA000056000BF00BF444D6D6805F0F001090903
:100CB0004C4D6B5C0568DD4045603F4D6D6805F44B
:100CC000E061090A474D6B5C4568DD4085603A4D3F
:100CD0006D6805F46051C90A424D6B5C4568DD40A2
:100CE000C560354D6D6805F44041890B3E4D6B5C28
:100CF000C568B5FBF3F5056130BD29B12E4A5269CF
:100D000002432D4B5A6104E02B4A526982432A4B1D
:100D10005A61704729B1284A92690243264B9A6169
:100D200004E0254A92698243234B9A61704729B1B6
:100D3000214AD2690243204BDA6104E01E4AD2699B
:100D400082431D4BDA61704729B11B4AD2680243C6
:100D5000194BDA6004E0184AD2688243164BDA6015
:100D6000704729B1144A12690243134B1A6104E017
:100D7000114A12698243104B1A6170471449403975
:100D8000086070470F49C86470470B49C8717047C5
:100D90000948406A40F08070074948627047014640
:100DA0000020054A92680A4201D0012000E000209C
:100DB0007047014988727047001002400000FFF838
:100DC000FFFFF6FE00004242D800424220100240DF
:100DD0008004424200127A00001BB70000093D0067
:100DE000808D5B00140000202400002010B5044614
:100DF000FB48844209D101218803FFF7A5FF0021A8
:100E00004FF48040FFF7A0FF32E0F648844209D15A
:100E100001214804FFF7A5FF00214FF40030FFF740
:100E2000A0FF25E0F048844209D101218804FFF7A2
:100E300098FF00214FF48020FFF793FF18E0EB4864
:100E4000844209D10121C804FFF78BFF00214FF430
:100E50000020FFF786FF0BE0E548844208D101211E
:100E60000805FFF77EFF00214FF48010FFF779FFA0
:100E700010BD2DE9F04786B005460E460024A24677
:100E800000BFA1460027B08900B100BF2F462C8AC1
:100E90004CF6FF700440F08804432C82AC894EF677
:100EA000F3100440B0883189084371890843044332
:100EB000AC81AC8A4FF6FF400440B0890443AC8259
:100EC00001A8FFF7BAFEC648874202D1DDF810A09C
:100ED00001E0DDF80CA0A88910F4004F08D00AEB5F
:100EE000CA0000EB0A1031684900B0FBF1F807E0D6
:100EF0000AEBCA0000EB0A1031688900B0FBF1F878
:100F00006420B8FBF0F004012009642101FB108982
:100F1000A88910F4004F08D0322000EBC900B0FBC4
:100F2000F1F000F00700044308E0322000EB091064
:100F30006421B0FBF1F000F00F0004432C8106B0F7
:100F4000BDE8F0874FF41651016000218180C18017
:100F500001810C21418100218181704710B5024639
:100F60000020108A4FF2FF0318400B884C8823435F
:100F70008C882343CC8823431843108210BD002162
:100F8000018041808180C180704721B1828942F413
:100F90000052828104E082894DF6FF731A408281FB
:100FA0007047F0B503460024002600250020A1F577
:100FB00010676A3F00D100BF1846C1F3421401F028
:100FC0001F06012707FA06F5012C01D10C3004E0B9
:100FD000022C01D1103000E014301AB107682F4301
:100FE000076002E00768AF430760F0BD1AB1838A6B
:100FF0000B43838202E0838A8B4383827047028A99
:101000004FF6F0731A400282028A0A430282704746
:1010100082894FF2FF731A40828182890A4382815A
:10102000704721B1828942F00202828104E0828904
:101030004FF6FD731A4082817047028A4FF6DF73C4
:101040001A400282028A0A430282704721B1028A50
:1010500042F48042028204E0028A4BF6FF731A4097
:1010600002827047C1F30802828070470146888877
:10107000C0F308007047818941F001018181704708
:10108000028BD2B20283028B42EA012202837047B2
:10109000028B02F47F420283028B0A430283704771
:1010A00021B1828A42F02002828204E0828A4FF6D5
:1010B000DF731A408282704721B1828A42F01002A7
:1010C000828204E0828A4FF6EF731A408282704770
:1010D00021B1828A42F00802828204E0828A4FF6BD
:1010E000F7731A408282704721B1828942F400422C
:1010F000828103E08289C2F30E028281704721B1AE
:10110000828A42F40062828204E0828A4FF2FF7394
:101110001A4082827047828A4FF6FB731A4082829D
:10112000828A0A438282704721B1828A42F0020297
:10113000828204E0828A4FF6FD731A4082827047F1
:1011400002460020B1F5007F00D100BF13880B429A
:1011500001D0012000E00020704701F40072B2F5D8
:10116000007F00D100BFCA430280704770B50246BD
:101170000024002300250020A1F510666A3E00D15E
:1011800000BFC1F3421501F01F03012606FA03F365
:10119000012D02D19689334006E0022D02D1168A34
:1011A000334001E0968A33400C12012606FA04F41B
:1011B0001688344013B10CB1012000E0002070BD4E
:1011C00010B500220023A1F510646A3C00D100BFD5
:1011D0000A1201249440A3B2DC43048010BD000035
:1011E000003801400044004000480040004C0040EE
:1011F0000050004010B50446F948844208D101214E
:101200004015FFF7A1FD00216015FFF79DFD17E0D8
:10121000F448844208D101210015FFF795FD002113
:101220002015FFF791FD0BE0EF48844208D1012122
:10123000C803FFF789FD00214FF40040FFF784FD4C
:1012400010BD30B50246002000235068E74C204016
:101250000D790C6844EA0524204350609068E44C02
:101260002040D1E902542C434D7944EA45042043FF
:101270009060D06A20F470000C7C641EE4B22343BA
:1012800040EA0350D06230BD00210160017141711C
:101290008160C16001210174704721B1826842F010
:1012A0000102826003E0826822F0010282607047DE
:1012B00021B1826842F48072826003E0826822F485
:1012C00080728260704710B50023CBB21AB14468B7
:1012D0001C43446002E044689C43446010BD816844
:1012E00041F0080181607047014600208A6812F0D1
:1012F000080F01D0012000E000207047816841F014
:10130000040181607047014600208A6812F0040FD2
:1013100001D0012000E00020704721B1826842F432
:10132000A002826003E0826822F4A002826070471B
:10133000014600208A6812F4800F01D0012000E0ED
:101340000020704710B50A4600210023416821F4AF
:101350006041531E41EA4331416010BD21B14268F2
:1013600042F40062426003E0426822F4006242609C
:101370007047F0B504460D4600200021092D11DD0F
:10138000E068A5F10A0606EB4607072606FA07F10C
:101390008843A5F10A0606EB460603FA06F1084360
:1013A000E0600CE0206905EB4507072606FA07F127
:1013B000884305EB450603FA06F108432061072A36
:1013C0000FDA606B561E06EB86071F2606FA07F13A
:1013D0008843561E06EB860605FA06F1084360634D
:1013E00022E00D2A0FDA206BD61F06EB86071F2698
:1013F00006FA07F18843D61F06EB860605FA06F1C2
:101400000843206310E0E06AA2F10D0606EB8607B0
:101410001F2606FA07F18843A2F10D0606EB8606A1
:1014200005FA06F10843E062F0BD21B1826842F49A
:101430008012826003E0826822F48012826070472A
:101440000146C86C80B2704765484C3000687047F0
:1014500021B1426842F48062426003E0426822F4B3
:1014600080624260704721B1426842F4805242601B
:1014700003E0426822F48052426070470A4600212D
:10148000816821F4E04111438160704721B1826895
:1014900042F40042826003E0826822F400428260EB
:1014A000704721B1826842F40212826003E08268D0
:1014B00022F4021282607047014600208A6812F40A
:1014C000001F01D0012000E000207047F0B5044665
:1014D0001546002000220026092911DDE068A1F14F
:1014E0000A0707EB470C072707FA0CF29043A1F114
:1014F0000A0707EB470703FA07F21043E0600CE026
:10150000206901EB410C072707FA0CF2904301EB2D
:10151000410703FA07F210432061A06BC0F30156A4
:10152000EF1C06F1010CA7EB0C0707EB870C1F273C
:1015300007FA0CF29043EF1C06F1010CA7EB0C0725
:1015400007EB870701FA07F21043A063F0BD10B55F
:101550000A4600210023816B21F44011531E41EA09
:101560000351816310BD10B5002303460B441A607C
:1015700010BD02460023134601F1280003441868F9
:1015800080B270470A46002141681A4B1940114346
:10159000416070474162826270470A46002141689B
:1015A00021F01F0111434160704740B10C490831DF
:1015B000096841F400010A4A0832116007E008494D
:1015C0000831096821F40001054A083211607047AA
:1015D0000246002013680B420ED001200DE00000EF
:1015E0000024014000280140003C0140FFFEF0FFC4
:1015F000FDF7F1FFFFFD3FFF00207047CA43026087
:10160000704770B502460020002300240B12556875
:10161000CEB205EA060415681D4202D00CB10120C5
:1016200000E0002070BD00220A12D343036070471F
:1016300001684FF6FE7211400160002101604160B7
:101640008160C1608C49884208D18B49083949685A
:1016500041F00F01884A083A51608AE08649143106
:10166000884208D184490839496841F0F001824A2A
:10167000083A51607DE080492831884208D17E498E
:101680000839496841F470617B4A083A516070E05A
:1016900079493C31884208D177490839496841F491
:1016A0007041754A083A516063E07349503188428D
:1016B00008D171490839496841F470216E4A083AE5
:1016C000516056E06C496431884208D16A49083952
:1016D000496841F47001684A083A516049E0664936
:1016E0007831884208D164490839496841F070610D
:1016F000614A083A51603CE06049884206D1011FC6
:10170000096841F00F01021F116032E05B4914319A
:10171000884208D15949091F096841F0F001574A28
:10172000121F116025E055492831884208D15349DC
:10173000091F096841F47061504A121F116018E0D6
:101740004E493C31884208D14C49091F096841F48F
:1017500070414A4A121F11600BE0484950318842DB
:1017600007D14649091F096841F47021434A121FF5
:101770001160704710B50022026847F6F0739A4373
:101780000C6A8B6823430C6923434C6923438C699F
:101790002343CC6923434C6A23438C6A23431A4373
:1017A0000260CB6843600B6883604B68C36010BD08
:1017B0000021016041608160C1600161416181611E
:1017C000C161016241628162704721B1026842F0E9
:1017D0000102026004E002684FF6FE731A400260E4
:1017E00070471AB103680B43036002E003688B4340
:1017F00003607047416070470146486880B2704797
:1018000001460020002211F0805F03D01B4B083BF3
:101810001A6802E0184B083B1A680A4201D00120FE
:1018200000E00020704710F0805F03D01349091FCB
:10183000086002E0104908394860704701460020FE
:10184000002211F0805F03D00C4B083B1A6802E0C5
:10185000094B083B1A680A4201D0012000E0002031
:10186000704710F0805F03D00449091F086002E050
:1018700001490839486070470800024008040240E6
:1018800010B50446FE48844208D10121C014FFF778
:101890005BFA0021E014FFF757FAC4E0B4F1804F7F
:1018A00008D101210846FFF75CFA00210120FFF76B
:1018B00058FAB8E0F348844208D101210220FFF72A
:1018C00050FA00210220FFF74CFAACE0EE488442C7
:1018D00008D101210420FFF744FA00210420FFF77A
:1018E00040FAA0E0E948844208D101210820FFF72E
:1018F00038FA00210820FFF734FA94E0E4488442E3
:1019000008D101211020FFF72CFA00211020FFF749
:1019100028FA88E0DF48844208D101212020FFF71F
:1019200020FA00212020FFF71CFA7CE0DA488442EC
:1019300008D101214014FFF707FA00216014FFF7D6
:1019400003FA70E0D548844209D10121C804FFF7A9
:10195000FBF900214FF40020FFF7F6F963E0D048CF
:10196000844209D101210805FFF7EEF900214FF467
:101970008010FFF7E9F956E0CA48844209D10121F5
:101980004805FFF7E1F900214FF40010FFF7DCF9FB
:1019900049E0C548844208D101214020FFF7E1F920
:1019A00000214020FFF7DDF93DE0C048844208D126
:1019B00001218020FFF7D5F900218020FFF7D1F920
:1019C00031E0BB48844208D101218015FFF7C9F9F5
:1019D0000021A015FFF7C5F925E0B648844209D1DA
:1019E00001210804FFF7B0F900214FF48030FFF720
:1019F000ABF918E0B048844209D101214804FFF74F
:101A0000A3F900214FF40030FFF79EF90BE0AB483B
:101A1000844208D101218804FFF796F900214FF490
:101A20008020FFF791F910BD00220288944B984264
:101A30000ED0994B98420BD0B0F1804F08D0914B0B
:101A4000984205D0904B984202D0904B984204D1D6
:101A50004FF68F731A404B881A438D4B984207D02C
:101A60008C4B984204D04FF6FF431A40CB881A4360
:101A700002808B8883850B880385814B98420BD02D
:101A8000854B984208D08B4B984205D08A4B9842A0
:101A900002D08A4B984201D10B7A038601238382BC
:101AA000704770B5002400220023058C4FF6FE76A7
:101AB00035400584028C8388048B4FF68F752C404B
:101AC000B51E2C400D882C43751E2A400D892A43D3
:101AD0004D882A436A4DA8420BD06F4DA84208D0CA
:101AE000744DA84205D0744DA84202D0734DA8424F
:101AF00013D14FF6F7752A404D892A434FF6FB75EF
:101B00002A408D882A434FF6FF652B404FF6FF553C
:101B10002B408D892B43CD892B4383800483CD8833
:101B20008586028470BD70B5002400220023058CD8
:101B30004FF6EF7635400584028C8388048B48F697
:101B4000FF752C404FF6FF452C400D884FF6FF7671
:101B500006EA05252C434FF6DF752A400D8906EA73
:101B600005152A434D8806EA05152A43444DA84227
:101B700002D0494DA8421DD14FF67F752A404D89AC
:101B80004FF6FF7606EA05152A434FF6BF752A4041
:101B90008D8806EA05152A434FF6FF352B404FF294
:101BA000FF752B408D8906EA85052B43CD8906EA12
:101BB00085052B4383800483CD880587028470BD0F
:101BC00070B5002400220023058C4FF6FF663540D7
:101BD0000584028C8388848B4FF68F752C404FF6DA
:101BE000FC752C400D882C434FF6FF552A400D897B
:101BF0004FF6FF7606EA05252A434D8806EA0525B5
:101C00002A431F4DA84202D0234DA8421DD14FF2B6
:101C1000FF752A404D894FF6FF7606EA05252A43CF
:101C20004FF6FF352A408D8806EA05252A434EF6F1
:101C3000FF752B404DF6FF752B408D8906EA051583
:101C40002B43CD8906EA05152B4383808483CD88F9
:101C50008587028470BD70B5002200230024058CA6
:101C60004EF6FF7635400584038C8488828B48F6D7
:101C7000FF752A404FF6FF452A400D8820E00000FE
:101C8000002C01400004004000080040000C00400F
:101C9000001000400014004000340140004C01409E
:101CA000005001400054014000180040001C00405A
:101CB0000020004000400140004401400048014035
:101CC0004FF6FF7606EA05252A434DF6FF752B40B1
:101CD0000D8906EA05352B434D8806EA05352B4369
:101CE000FA4DA84202D0FA4DA84208D14BF6FF7532
:101CF0002C408D894FF6FF7606EA85152C438480AB
:101D00008283CD88A0F84050038470BD828B4FF24F
:101D1000FF331A408283828B4FF6FF7303EA01235D
:101D20001A4382837047F0B50C4615460022002105
:101D30000026078C4EF6FF7C07EA0C070784828B8F
:101D4000018C4FF6FF7707EA043640F6FF473A402A
:101D50004FF6FF7707EA05273A434FF6FF7707EA82
:101D600003373A43D94FB8420ED0D94FB8420BD0BF
:101D7000B0F1804F08D0D74FB84205D0D64FB84207
:101D800002D0D64FB84206D14DF6FF77394046F41F
:101D90008057394305E047F6FF57394044F48057F0
:101DA000394382830184F0BD828B4FF6F3731A406E
:101DB0008283828B0A4382837047F0B50C461546B6
:101DC000002200210026078C4FF6FF6C07EA0C0763
:101DD0000784828B018C4FF6FF7707EA04264FF6C3
:101DE0000C773A404FF6FF7707EA03172F433A4341
:101DF000B64FB8420ED0B64FB8420BD0B0F1804FBC
:101E000008D0B44FB84205D0B34FB84202D0B34F58
:101E1000B84206D14FF6FF57394046F48077394330
:101E200005E04FF2FF57394044F48077394382830D
:101E30000184F0BD028B4FF2FF331A400283028B04
:101E40004FF6FF7303EA01231A4302837047F0B58C
:101E50000C461546002200210026078C4FF6EF7C29
:101E600007EA0C070784028B018C4FF6FF7707EA1D
:101E7000041640F6FF473A404FF6FF7707EA03376C
:101E80003A434FF6FF7707EA05273A438F4FB842A8
:101E90000ED08F4FB8420BD0B0F1804F08D08D4F8D
:101EA000B84205D08C4FB84202D08C4FB84206D110
:101EB0004FF6DF77394046F01007394305E04FF61B
:101EC0005F77394044F01007394302830184F0BD45
:101ED000028B4FF6F3731A400283028B0A4302838C
:101EE0007047F0B50C46154600220021068C4FF6CF
:101EF000FE773E400684028B018C4FF60C76324012
:101F00007E1C06EA03162E433243704EB0420ED0BA
:101F10006F4EB0420BD0B0F1804F08D06D4EB04242
:101F200005D06D4EB04202D06C4EB04206D14FF695
:101F3000FD76314044F00106314305E04FF6F57679
:101F4000314044F00106314302830184F0BD70B595
:101F500005460C465D4885420ED05D4885420BD053
:101F6000B5F1804F08D05B48854205D05A4885427C
:101F700002D05A48854200D100E000BF208850B905
:101F80002389A28861882846FFF7ABFFE1882846AD
:101F9000FFF79EFF25E0208804280AD12389A28824
:101FA00061882846FFF753FFE1882846FFF742FF84
:101FB00017E0208808280AD12389A288618828464A
:101FC000FFF7FBFEE1882846FFF7EEFE09E02389D4
:101FD000A28861882846FFF7A6FEE1882846FFF719
:101FE00095FE70BD2DE9F04105460C4600260127FF
:101FF000608808B9022600E00026A088012801D1E7
:10200000022700E001272088A0B92389A2886188DF
:102010002846FFF766FFE1882846FFF759FF238926
:102020003A4631462846FFF712FFE1882846FFF777
:1020300001FF13E02389A28861882846FFF707FF84
:10204000E1882846FFF7F6FE23893A4631462846BE
:10205000FFF747FFE1882846FFF73AFFBDE8F08128
:102060000A884B881A438B881A43CB881A430B89FA
:102070001A434B891A438B891A43A0F844207047AE
:102080004FF6FF71818000210180C1804180017283
:1020900070470021018041808180C18001814181A0
:1020A0008181C181704700210180418001218180AF
:1020B0000021C18001817047002101804180818021
:1020C000C18001814181818170470000002C014065
:1020D000003401400004004000080040000C0040B3
:1020E00021B1028842F00102028004E002884FF62A
:1020F000FE731A400280704731B1B0F8442042F4B8
:102100000042A0F8442005E0B0F84420C2F30E02DB
:10211000A0F8442070471AB183890B43838102E001
:1021200083898B43838170478182704741EA020330
:10213000A0F8483070471AB183890B43838102E0CD
:1021400083898B438381704701894FF6F872114070
:10215000018170470A46002101894FF68F731940AB
:1021600011430181704730B504460D46294620468B
:10217000FFF7F0FF208940F00700208130BD2DE9F6
:10218000F04104460D4616461F46602D06D13B46DB
:10219000012231462046FFF75AFE05E03B46012268
:1021A00031462046FFF79DFE29462046FFF7D2FF25
:1021B000208940F007002081BDE8F08130B50C4651
:1021C00000210189C9B24FF6FF7505EA03251543C1
:1021D00025432943018130BD2DE9F04105460E46D6
:1021E00017469846002443463A4631462846FFF7AC
:1021F000E5FF2C894FF6F870044044F007044FF6D1
:102200008F70044044F070042C81BDE8F081F0B57B
:1022100004460D4616461F463B4632462946204692
:10222000FFF7CCFF208940F480402081F0BD01857C
:10223000828270470A46002101884FF68F73194049
:10224000114301807047F0B50C4615461E4600212B
:10225000002200230189028B038C4FF6F877394066
:1022600021434FF6FC473A4040F201173A434FF6FC
:10227000DD773B404FF6FF7707EA06172F433B43D6
:10228000018102830384F0BD0A460021018B4FF6D1
:102290008F7319401143018370470A460021018B57
:1022A00048F6FF7319404FF6FF7303EA0223194300
:1022B000018370470A460021818B4FF68F731940C6
:1022C0001143818370470A460021818B48F6FF73D2
:1022D00019404FF6FF7303EA0223194381837047C5
:1022E00021B1028842F08002028004E002884FF6A9
:1022F0007F731A400280704721B1828842F0040245
:10230000828004E082884FF6FB731A408280704717
:1023100021B1828842F00802828004E082884FF670
:10232000F7731A408280704721B1828842F001021F
:10233000828004E082884FF6FE731A4082807047E4
:102340000A460021018B4FF6F773194011430183B0
:1023500070470A460021018B4FF2FF7319404FF678
:10236000FF7303EA02231943018370470A460021E1
:10237000818B4FF6F77319401143818370470A46EA
:102380000021818B4FF2FF7319404FF6FF7303EA70
:1023900002231943818370470A460021018B4FF6BF
:1023A000FB7319401143018370470A460021018BDA
:1023B0004FF6FF3319404FF6FF7303EA0223194328
:1023C000018370470A460021818B4FF6FB73194049
:1023D0001143818370470A460021818B4FF6FF33FA
:1023E00019404FF6FF7303EA0223194381837047B4
:1023F0000A460021018B4FF67F7319401143018378
:1024000070470A460021018BC1F30E014FF6FF739E
:1024100003EA02231943018370470A460021818B96
:102420004FF67F7319401143818370470A4600219C
:10243000818BC1F30E014FF6FF7303EA02231943A8
:10244000818370470A460021018C4FF6FD731940C5
:102450001143018470470A460021018C4FF6F7733F
:1024600019401143018470470A460021018C4FF640
:10247000DF7319404FF6FF7303EA02131943018417
:1024800070470A460021018C4FF67F7319404FF6C2
:10249000FF7303EA02131943018470470A460021BF
:1024A000018C4FF6FF5319404FF6FF7303EA0223E6
:1024B0001943018470470A460021018C4FF2FF73D3
:1024C00019404FF6FF7303EA022319430184704752
:1024D0000A460021018C4DF6FF7319404FF6FF7339
:1024E00003EA023319430184704730B50023012405
:1024F0008C40A3B2048C9C430484048C02FA01F542
:10250000ADB22C43048430BD30B5002304248C408C
:10251000A3B2048C9C430484048C02FA01F5ADB28E
:102520002C43048430BD70B50346002000241846B7
:10253000183001258D40ACB21D8CA5431D8409B116
:10254000082909D100EB6100056825F070050560D8
:102550000568154305600EE00D1FC5F34E052844C0
:10256000056825F4E045056005684FF6FF7606EA44
:1025700002263543056070BD21B1028842F0020297
:10258000028004E002884FF6FD731A400280704713
:1025900021B1028842F00402028004E002884FF672
:1025A000FB731A400280704721B1828842F080029A
:1025B000828004E082884FF67F731A4082807047E1
:1025C00002884FF6F7731A40028002880A4302809D
:1025D000704782884FF68F731A40828082880A4340
:1025E0008280704702894FF6F8731A40028102898F
:1025F0000A430281704702894FF67F731A400281B5
:1026000002890A430281704781847047818570473F
:10261000818670470187704781877047A0F8401016
:10262000704702884FF6FF431A40028002880A432F
:10263000028070470146888E70470146088F7047B8
:102640000146888F70470146B1F840007047014647
:10265000888C70470146088D704702460020138A17
:102660000B4201D0012000E000207047CA430282E3
:10267000704730B50246002000230024158A05EA81
:102680000103958905EA010413B10CB1012000E0B2
:10269000002030BDCA4302827047000070B5044676
:1026A0000D461646002020703E4800210160416022
:1026B000018164213C4800F065FC32463BA1394869
:1026C00000F0D0FC3AA1384800F067FC29463648B3
:1026D00000F063FC39A1344800F05FFC38A13248B7
:1026E00000F05BFC2F49304800F057FC33A12E4826
:1026F00000F053FC34A12C4800F04FFC29492A4833
:1027000000F04BFC2DA1284800F047FC30A12648E2
:1027100000F043FC2349244800F03FFC27A1224855
:1027200000F03BFC2CA1204800F037FC1D491E485E
:1027300000F033FC21A11C4800F02FFC28A11A480E
:1027400000F02BFC1749184800F027FC1BA1164885
:1027500000F023FC24A1144800F01FFC114912488A
:1027600000F01BFC22A1204600F017FC0E49204679
:1027700000F013FC24A1204600F00FFC25A1204608
:1027800000F00BFC2AA1204600F007FC2FA12046F8
:1027900000F003FC34A1204600F0FFFB204600F0CF
:1027A00020FC70BDA00000203C000020256400003B
:1027B000617574685F6B65793D000000260000005C
:1027C00064617461313D000064617461323D0000F8
:1027D00064617461333D000064617461343D0000E4
:1027E00064617461353D000064617461363D0000D0
:1027F000474554202F547261696E2F676574696E66
:10280000666F2E7068703F0020485454502F312E50
:10281000310D0A00486F73743A203139322E313647
:10282000382E312E3130383A383838380D0A000019
:10283000436F6E6E656374696F6E3A204B656570A9
:102840002D416C6976650D0A0000000043616368E4
:10285000652D436F6E74726F6C3A206E6F2D6361DD
:102860006368650D0A0000000D0A0D0A00000000F3
:1028700010B54FF47A7218A118A000F073F94FF454
:102880007A7215A117A000F06DF94FF4FA6212A147
:1028900018A000F067F94FF47A720FA118A000F0A9
:1028A00061F94FF4FA620CA118A000F05BF94FF443
:1028B000FA6209A11FA000F055F94FF47A7206A13F
:1028C00027A000F04FF94FF47A7229A129A000F057
:1028D00049F900F020F910BD4F4B000041540D0A9A
:1028E0000000000041542B43574D4F44453D330DEC
:1028F0000A00000041542B5253540D0A00000000FE
:1029000041542B43494653520D0A000041542B4376
:10291000574A41503D2254502D4C494E4B5F34464E
:102920003743222C2278363432316B667379732226
:102930000D0A000041542B43495053544152543D19
:1029400022544350222C223139322E3136382E3146
:102950002E313038222C383838380D0A000000006B
:1029600041542B4349504D4F44453D310D0A000021
:102970003E00000041542B43495053454E440D0A3C
:102980000000000000B587B0012144F20400FEF70A
:10299000C1F94FF40070ADF8180018208DF81B0035
:1029A00003208DF81A0006A93148FDF701FF4FF406
:1029B0008060ADF8180004208DF81B0006A92C4893
:1029C000FDF7F6FE4FF4E13002900020ADF80C0068
:1029D000ADF80E00ADF81000ADF814000C20ADF805
:1029E000120002A92348FEF744FA01212148FEF70C
:1029F000CCFA002240F225511E48FEF7D2FA2520DB
:102A00008DF8040001208DF805008DF806008DF882
:102A1000070001A8FDF703FE07B000BD2DE9F04156
:102A200007460C46154600260DE014F8011B3846F3
:102A3000FEF718FB00BF40213846FEF781FB002857
:102A4000F9D0701CC6B2AE42EFDBBDE8F08170B5C4
:102A500004460D46E1B20748FEF704FB00BF8021A3
:102A60000448FEF76DFB0028F9D0204670BD000039
:102A7000000801400038014000B587B00121042062
:102A8000FEF748F901214804FEF751F90420ADF89A
:102A9000180018208DF81B0003208DF81A0006A9D5
:102AA0004B48FDF785FE0820ADF8180004208DF88E
:102AB0001B0006A94648FDF77BFE4FF4E13002906B
:102AC0000020ADF80C00ADF80E00ADF81000ADF828
:102AD00014000C20ADF8120002A93E48FEF7C9F917
:102AE00001213C48FEF751FA012240F225513948B4
:102AF000FEF757FA26208DF8040003208DF8050014
:102B000002208DF8060001208DF8070001A8FDF7CE
:102B100086FD07B000BD10B54FF480612E4800F06F
:102B200031FA00202D49086010BD2DE9F04107461B
:102B30000C46154640213846FEF70FFB00260DE0F7
:102B400014F8011B3846FEF78DFA00BF40213846C5
:102B5000FEF7F6FA0028F9D0701CC6B2AE42EFDBE1
:102B6000BDE8F081F8B504460E4615461EE0FFF7B5
:102B7000D2FF204600F035FAC7B23A462146154842
:102B8000FFF7D3FFA8B200F028F9134823466322C9
:102B90001349009013A000F055FA31460E4800F09A
:102BA0000AFA00B103E0642000F017F9DFE700BF84
:102BB000F8BD0A480068704770B505460C4625B157
:102BC00022460549284600F0C4F9FFF7A4FF70BD6E
:102BD0000008014000440040AA0000202C00002012
:102BE0006E320008257320256420636D643A2573D6
:102BF0002C7273703A25730A0000000000B58BB088
:102C00004848FEF715FD48480090484801900020CC
:102C10000290012003900020049005904FF48070F2
:102C20000690800007902020089000020990002064
:102C30000A9069463B48FEF79DFD01213948FEF7A1
:102C4000C4FD0BB000BD00B585B000200090012090
:102C50008DF804008DF805004FF4602002900020EC
:102C6000039001208DF8100069462F484C38FEF77C
:102C7000E8FA052301220D212B484C38FEF779FB99
:102C8000012129484C38FEF713FB012126484C3816
:102C9000FEF703FB24484C38FEF721FB00BF224817
:102CA0004C38FEF721FB0028F9D11F484C38FEF7BD
:102CB00025FB00BF1C484C38FEF725FB0028F9D146
:102CC000012119484C38FEF728FB05B000BD08B5B6
:102CD0000820ADF8000000208DF8030002208DF8D8
:102CE000020069461248FDF763FD08BD10B50121D9
:102CF0001020FEF70FF801210846FDF7FEFF012125
:102D00004802FEF707F84FF40040FDF76AFF10BDD8
:102D100010B5FFF7EBFFFFF7DAFFFFF794FFFFF7C0
:102D20006DFF10BD080002404C240140300000201F
:102D3000001001404FF0E020006920F004004FF047
:102D4000E02108610920344908700846007800EB4A
:102D50004001C1EBC0104FF6FF7101EAC0002F49DE
:102D600008807047002100BF2B4A127842434FF081
:102D7000E0235A6100229A6101221A6100BF4FF0DC
:102D8000E022116911F0010F02D011F4803FF6D05A
:102D900000224FF0E0231A619A617047002100B9C8
:102DA000704700BF1D4A128842434FF0E0235A612A
:102DB00000229A6101221A6100BF4FF0E0221169DE
:102DC00011F0010F02D011F4803FF6D000224FF035
:102DD000E0231A619A6100BFE2E770B5044600265D
:102DE00000254FF4FA7094FBF0F0C6B24FF4FA707D
:102DF00094FBF0F100FB114085B205E04FF4FA704E
:102E0000FFF7CCFF701EC6B2002EF7D115B12846D1
:102E1000FFF7C4FF70BD0000340000203600002022
:102E200008B501211020FDF775FF0120ADF8000065
:102E300010208DF8030003208DF802006946294810
:102E4000FDF7B6FC0220ADF8000004208DF8030069
:102E500069462448FDF7ACFC08BD70B50121214846
:102E6000FDF751FD1420FFF77DFF01211D48FDF7FF
:102E70004CFD00BF02211B48FDF72BFD0028F9D0B7
:102E800001218807FFF72CF900BF02211548FDF743
:102E900020FD0028F9D100214FF08040FFF720F9F4
:102EA0004FF08040FFF7D3FB00EB800000EB0010F9
:102EB00040004FF4FA6190FBF1F400214FF08040A4
:102EC000FFF7A2FBE21704EB12621212A4EB02223C
:102ED000E31704EB13631B1203EB830302EB4305BD
:102EE000284670BD0010014008B54FF4E060FDF7C2
:102EF00091FB1C208DF8000000208DF801000320BC
:102F00008DF8020001208DF803006846FDF787FB6D
:102F100008BD0EB501210846FDF709FF4FF08040BE
:102F2000FEF7AEFC4FF6FF70ADF8040040F26710FC
:102F3000ADF800000020ADF80600ADF802006946CB
:102F40004FF08040FEF770FD01218807FFF78EFBF0
:102F50000EBD40EA01039B0703D009E008C9121F18
:102F600008C0042AFAD203E011F8013B00F8013B43
:102F7000521EF9D27047D2B201E000F8012B491E6F
:102F8000FBD270470022F6E710B513460A46044606
:102F90001946FFF7F0FF204610BD034600E0401C35
:102FA0000278002AFBD111F8012B00F8012B002A2E
:102FB000F9D11846704730B50EE003460A4601E0E5
:102FC0005B1C521C1C781578AC4201D1002CF7D147
:102FD00015F0FF0F04D0401C0278002AEDD100202C
:102FE00030BD0146002000E0401C0A5C002AFBD1F5
:102FF000704730B50B46014600202022012409E02D
:1030000021FA02F59D4205D303FA02F5491B04FAA1
:1030100002F52844151EA2F10102F1DC30BD0000CA
:10302000064C074D06E0E06840F0010394E8070015
:1030300098471034AC42F6D3FDF77EF8783200089A
:10304000983200080FB4054B10B503A9044A029842
:1030500000F02CF810BC5DF814FB00004F2A0008AB
:10306000380000200FB4084B10B504A902AA039839
:1030700000F01CF8044602A9002000F0F3F82046F6
:1030800010BC5DF814FB00006532000802E008C8BF
:10309000121F08C1002AFAD170477047002001E0D2
:1030A00001C1121F002AFBD1704700002DE9FF4F1C
:1030B0008BB09A460F4605460026C9E0252837D131
:1030C00000246D1C6649A14601222B78203B02FAA0
:1030D00003F0084202D004436D1CF6E728782E283E
:1030E00017D115F8010F44F004042A280ED06FF010
:1030F0002F022878A0F1300109290AD809EB8901AB
:1031000002EB410100EB01096D1CF2E757F8049B4B
:103110006D1C287869283FD006DC002871D0632810
:103120000CD0642804D137E0732811D075284ED014
:1031300052460D99904706F1010688E017F8040BF6
:103140008DF8000000208DF80100E846012003E022
:1031500057F8048B4FF0FF3061074FF0000401D4A3
:103160000AE0641C4C450DDA8442FADB18F80410BE
:103170000029F6D106E0641C8442FCDB18F8041038
:103180000029F8D1264404E018F8010B52460D99A5
:103190009047641EF8D25AE001CF4FF00A0B002886
:1031A00004DAC0F100004FF02D0102E0210504D542
:1031B0002B218DF82410012103E0E10705D0202107
:1031C000F7E70DF1200808910CE00021F9E701CFA5
:1031D0004FF00A0BF9E75946FFF70BFF01F13002F8
:1031E00008F8012D0028F6D1ADEB080000F1200B06
:1031F000600701D44FF00109D94503DDA9EB0B00AD
:1032000001E029E000208146002406E009A852469A
:10321000005D0D999047761C641C08988442F5DB8C
:1032200004E0302052460D999047761CB9F1000118
:10323000A9F10109F5DC05E018F8010B52460D99DA
:103240009047761CBBF10001ABF1010BF4DC6D1C67
:10325000287800287FF432AF0FB03046BDE8F08FF9
:10326000092801000A68531C0B60107070475365F1
:103270006E64436D64000000983200080000002076
:103280003C0000008C300008D43200083C000020D4
:10329000740800009C30000800A24A0400000000EE
:1032A00000000000010203040607080900000000F6
:1032B00001020304010203040607080902040608C8
:1032C00000000000000000000000000000000000FE
:0432D00000000000FA
:0400000508000131BD
:00000001FF
